:020000040000FA
:1000000060020020F1020000F9020000FB02000083
:10001000FD020000FF0200000103000000000000DC
:1000200000000000000000000000000003030000CA
:1000300005030000000000000703000009030000A2
:100040000B0300000D0300000F030000110300006C
:10005000130300001503000017030000190300003C
:100060001B0300001D0300001F030000210300000C
:1000700023030000250300002703000029030000DC
:100080002B0300002D0300002F03000031030000AC
:10009000330300003503000037030000390300007C
:1000A0003B0300003D0300003F030000410300004C
:1000B000430300004503000047030000490300001C
:1000C0004B0300004D0300004F03000051030000EC
:1000D00053030000550300005703000059030000BC
:1000E0005B0300005D030000000000005F030000F0
:1000F0006103000063030000650300006703000064
:10010000690300006B0300006D0300006F03000033
:1001100000000000000000007103000073030000F5
:100120007503000077030000790300007B030000E3
:100130007D0300007F0300008103000083030000B3
:1001400000000000000000000000000000000000AF
:100150008503000087030000890300008B03000073
:10016000000000000000000000000000000000008F
:10017000000000000000000000000000000000007F
:10018000000000000000000000000000000000006F
:10019000000000000000000000000000000000005F
:1001A000000000000000000000000000000000004F
:1001B0008D0300008F0300009103000093030000F3
:1001C0009503000097030000990300009B030000C3
:1001D0009D0300009F030000A1030000A303000093
:1001E000A5030000A7030000A90300000000000011
:1001F00000000000AB030000AD030000AF030000EF
:10020000B1030000B3030000000000000000000084
:10021000B5030000B7030000B9030000BB030000F2
:10022000BD030000BF030000C1030000C3030000C2
:10023000C5030000C7030000C9030000CB03000092
:10024000CD030000CF030000D1030000D303000062
:10025000D5030000D7030000D9030000DB03000032
:10026000DD030000DF030000E103000000F002F8FE
:1002700000F02EF80AA090E8000C82448344AAF112
:100280000107DA4501D100F023F8AFF2090EBAE810
:100290000F0013F0010F18BFFB1A43F001031847BA
:1002A0004407000054070000002300240025002616
:1002B000103A28BF78C1FBD8520728BF30C148BFC9
:1002C0000B6070471FB500F080FB1FBD10B510BD5F
:1002D00000F09BF81146FFF7F5FF00F065FB00F01A
:1002E000B9F803B4FFF7F2FF03BC00F0C1F8000057
:1002F0003F4880473F480047FEE7FEE7FEE7FEE74E
:10030000FEE7FEE7FEE7FEE7FEE7FEE7FEE7FEE7C5
:10031000FEE7FEE7FEE7FEE7FEE7FEE7FEE7FEE7B5
:10032000FEE7FEE7FEE7FEE7FEE7FEE7FEE7FEE7A5
:10033000FEE7FEE7FEE7FEE7FEE7FEE7FEE7FEE795
:10034000FEE7FEE7FEE7FEE7FEE7FEE7FEE7FEE785
:10035000FEE7FEE7FEE7FEE7FEE7FEE7FEE7FEE775
:10036000FEE7FEE7FEE7FEE7FEE7FEE7FEE7FEE765
:10037000FEE7FEE7FEE7FEE7FEE7FEE7FEE7FEE755
:10038000FEE7FEE7FEE7FEE7FEE7FEE7FEE7FEE745
:10039000FEE7FEE7FEE7FEE7FEE7FEE7FEE7FEE735
:1003A000FEE7FEE7FEE7FEE7FEE7FEE7FEE7FEE725
:1003B000FEE7FEE7FEE7FEE7FEE7FEE7FEE7FEE715
:1003C000FEE7FEE7FEE7FEE7FEE7FEE7FEE7FEE705
:1003D000FEE7FEE7FEE7FEE7FEE7FEE7FEE7FEE7F5
:1003E000FEE7000004480549034A054B704700003A
:1003F000950900006D0200006000002060020020EE
:1004000060000020704770477047754600F02CF878
:10041000AE4605006946534620F00700854618B0F1
:1004200020B5FFF7DFFFBDE820404FF000064FF09A
:1004300000074FF000084FF0000BAC46ACE8C009D5
:10044000ACE8C009ACE8C009ACE8C00921F007017C
:100450008D46704710B50446AFF300802046BDE8D6
:100460001040FFF73EBF000000487047000000202A
:1004700001491820ABBEFEE72600020070470000CD
:1004800083B08DF80B008DF80A108DF8092000203C
:1004900001909DF80B0001460091052800F2A18112
:1004A0000099DFE811F006004A008E00D200160124
:1004B0005A014EF20861C4F20F01086840F00100D1
:1004C000086000200190FFE7019849F2DF31C0F297
:1004D0000401884205D8FFE7FFE701980130019049
:1004E000F2E79DF80A10012000FA01F244F21C51D3
:1004F000C4F200010868104308609DF80900012853
:100500000DD1FFE79DF80A10012000FA01F244F234
:100510000041C4F200010868104308600CE09DF837
:100520000A10012000FA01F244F20041C4F2000175
:10053000086890430860FFE753E14EF20861C4F297
:100540000F01086840F00200086000200190FFE7FA
:10055000019849F2DF31C0F20401884205D8FFE773
:10056000FFE7019801300190F2E79DF80A100120A1
:1005700000FA01F245F21C51C4F200010868104370
:1005800008609DF8090001280DD1FFE79DF80A10C9
:10059000012000FA01F245F20041C4F200010868AE
:1005A000104308600CE09DF80A10012000FA01F2E7
:1005B00045F20041C4F20001086890430860FFE77B
:1005C0000FE14EF20861C4F20F01086840F0040028
:1005D000086000200190FFE7019849F2DF31C0F286
:1005E0000401884205D8FFE7FFE701980130019038
:1005F000F2E79DF80A10012000FA01F246F21C51C0
:10060000C4F200010868104308609DF80900012841
:100610000DD1FFE79DF80A10012000FA01F246F221
:100620000041C4F200010868104308600CE09DF826
:100630000A10012000FA01F246F20041C4F2000162
:10064000086890430860FFE7CBE04EF20861C4F20F
:100650000F01086840F00800086000200190FFE7E3
:10066000019849F2DF31C0F20401884205D8FFE762
:10067000FFE7019801300190F2E79DF80A10012090
:1006800000FA01F247F21C51C4F20001086810435D
:1006900008609DF8090001280DD1FFE79DF80A10B8
:1006A000012000FA01F247F20041C4F2000108689B
:1006B000104308600CE09DF80A10012000FA01F2D6
:1006C00047F20041C4F20001086890430860FFE768
:1006D00087E04EF20861C4F20F01086840F0100094
:1006E000086000200190FFE7019849F2DF31C0F275
:1006F0000401884205D8FFE7FFE701980130019027
:10070000F2E79DF80A10012000FA01F244F21C51B0
:10071000C4F202010868104308609DF8090001282E
:100720000DD1FFE79DF80A10012000FA01F244F212
:100730000041C4F202010868104308600CE09DF813
:100740000A10012000FA01F244F20041C4F2020151
:10075000086890430860FFE743E04EF20861C4F286
:100760000F01086840F02000086000200190FFE7BA
:10077000019849F2DF31C0F20401884205D8FFE751
:10078000FFE7019801300190F2E79DF80A1001207F
:1007900000FA01F245F21C51C4F20201086810434C
:1007A00008609DF8090001280DD1FFE79DF80A10A7
:1007B000012000FA01F245F20041C4F2020108688A
:1007C000104308600CE09DF80A10012000FA01F2C5
:1007D00045F20041C4F20201086890430860FFE757
:1007E000FFE703B07047000082B08DF807008DF876
:1007F00006108DF805209DF8070001460091052898
:1008000000F2C6800099DFE801F00323436383A36D
:100810009DF8050001280DD1FFE79DF80610012085
:1008200000FA01F244F2FC31C4F2000108681043FE
:1008300008600CE09DF80610012000FA01F244F275
:10084000FC31C4F20001086890430860FFE79FE0B4
:100850009DF8050001280DD1FFE79DF80610012045
:1008600000FA01F245F2FC31C4F2000108681043BD
:1008700008600CE09DF80610012000FA01F245F234
:10088000FC31C4F20001086890430860FFE77FE094
:100890009DF8050001280DD1FFE79DF80610012005
:1008A00000FA01F246F2FC31C4F20001086810437C
:1008B00008600CE09DF80610012000FA01F246F2F3
:1008C000FC31C4F20001086890430860FFE75FE074
:1008D0009DF8050001280DD1FFE79DF806100120C5
:1008E00000FA01F247F2FC31C4F20001086810433B
:1008F00008600CE09DF80610012000FA01F247F2B2
:10090000FC31C4F20001086890430860FFE73FE053
:100910009DF8050001280DD1FFE79DF80610012084
:1009200000FA01F244F2FC31C4F2020108681043FB
:1009300008600CE09DF80610012000FA01F244F274
:10094000FC31C4F20201086890430860FFE71FE031
:100950009DF8050001280DD1FFE79DF80610012044
:1009600000FA01F245F2FC31C4F2020108681043BA
:1009700008600CE09DF80610012000FA01F245F233
:10098000FC31C4F20201086890430860FFE7FFE70A
:1009900002B070474EF68851CEF20001086840F46C
:1009A000700008607047000080B582B0002101919E
:1009B000012200920846FFF763FD009A019908465C
:1009C000FFF712FF019802B080BDF1EE100A4FF65A
:1009D000FF71C0F2C03120EA010040F04070E1EE4A
:1009E000100A7047F40900000000002060020000B7
:0409F000A802000059
:04000005000002F104
:00000001FF
